{
  "_format": "hh-sol-artifact-1",
  "contractName": "House",
  "sourceName": "contracts/House.sol",
  "abi": [
    {
      "inputs": [],
      "stateMutability": "nonpayable",
      "type": "constructor"
    },
    {
      "anonymous": false,
      "inputs": [
        {
          "indexed": false,
          "internalType": "address",
          "name": "owner",
          "type": "address"
        },
        {
          "indexed": false,
          "internalType": "uint256",
          "name": "auctionId",
          "type": "uint256"
        },
        {
          "indexed": false,
          "internalType": "address",
          "name": "_nftAddress",
          "type": "address"
        },
        {
          "indexed": false,
          "internalType": "uint256",
          "name": "_tokenId",
          "type": "uint256"
        },
        {
          "indexed": false,
          "internalType": "uint256",
          "name": "endTime",
          "type": "uint256"
        },
        {
          "indexed": false,
          "internalType": "uint256",
          "name": "_minPrice",
          "type": "uint256"
        },
        {
          "indexed": false,
          "internalType": "uint256",
          "name": "fee",
          "type": "uint256"
        },
        {
          "indexed": false,
          "internalType": "bool",
          "name": "finished",
          "type": "bool"
        }
      ],
      "name": "NewAuction",
      "type": "event"
    },
    {
      "anonymous": false,
      "inputs": [
        {
          "indexed": false,
          "internalType": "uint256",
          "name": "auctionId",
          "type": "uint256"
        },
        {
          "indexed": false,
          "internalType": "address",
          "name": "bidder",
          "type": "address"
        },
        {
          "indexed": false,
          "internalType": "uint256",
          "name": "newBid",
          "type": "uint256"
        }
      ],
      "name": "NewBid",
      "type": "event"
    },
    {
      "anonymous": false,
      "inputs": [
        {
          "indexed": true,
          "internalType": "address",
          "name": "previousOwner",
          "type": "address"
        },
        {
          "indexed": true,
          "internalType": "address",
          "name": "newOwner",
          "type": "address"
        }
      ],
      "name": "OwnershipTransferred",
      "type": "event"
    },
    {
      "anonymous": false,
      "inputs": [
        {
          "indexed": false,
          "internalType": "uint256",
          "name": "auctionId",
          "type": "uint256"
        },
        {
          "indexed": false,
          "internalType": "uint256",
          "name": "newFee",
          "type": "uint256"
        }
      ],
      "name": "UpdateFee",
      "type": "event"
    },
    {
      "inputs": [
        {
          "internalType": "uint256",
          "name": "_auctionId",
          "type": "uint256"
        }
      ],
      "name": "addAmtToAuction",
      "outputs": [],
      "stateMutability": "payable",
      "type": "function"
    },
    {
      "inputs": [],
      "name": "auctionId",
      "outputs": [
        {
          "internalType": "uint256",
          "name": "",
          "type": "uint256"
        }
      ],
      "stateMutability": "view",
      "type": "function"
    },
    {
      "inputs": [
        {
          "internalType": "uint256",
          "name": "",
          "type": "uint256"
        }
      ],
      "name": "auctions",
      "outputs": [
        {
          "internalType": "address",
          "name": "owner",
          "type": "address"
        },
        {
          "internalType": "address",
          "name": "nftAddress",
          "type": "address"
        },
        {
          "internalType": "uint256",
          "name": "tokenId",
          "type": "uint256"
        },
        {
          "internalType": "uint256",
          "name": "endTime",
          "type": "uint256"
        },
        {
          "internalType": "uint256",
          "name": "minPrice",
          "type": "uint256"
        },
        {
          "internalType": "uint256",
          "name": "amount",
          "type": "uint256"
        },
        {
          "internalType": "bool",
          "name": "settled",
          "type": "bool"
        }
      ],
      "stateMutability": "view",
      "type": "function"
    },
    {
      "inputs": [
        {
          "internalType": "address",
          "name": "_nftAddress",
          "type": "address"
        },
        {
          "internalType": "uint256",
          "name": "_tokenId",
          "type": "uint256"
        },
        {
          "internalType": "uint256",
          "name": "_duration",
          "type": "uint256"
        },
        {
          "internalType": "uint256",
          "name": "_minPrice",
          "type": "uint256"
        }
      ],
      "name": "createNewAuction",
      "outputs": [
        {
          "internalType": "address",
          "name": "",
          "type": "address"
        },
        {
          "internalType": "uint256",
          "name": "",
          "type": "uint256"
        },
        {
          "internalType": "uint256",
          "name": "",
          "type": "uint256"
        }
      ],
      "stateMutability": "payable",
      "type": "function"
    },
    {
      "inputs": [],
      "name": "getContractBalance",
      "outputs": [
        {
          "internalType": "uint256",
          "name": "",
          "type": "uint256"
        }
      ],
      "stateMutability": "view",
      "type": "function"
    },
    {
      "inputs": [],
      "name": "getMoney",
      "outputs": [],
      "stateMutability": "payable",
      "type": "function"
    },
    {
      "inputs": [
        {
          "internalType": "uint256",
          "name": "",
          "type": "uint256"
        }
      ],
      "name": "highestBid",
      "outputs": [
        {
          "internalType": "address",
          "name": "bidder",
          "type": "address"
        },
        {
          "internalType": "uint256",
          "name": "amount",
          "type": "uint256"
        }
      ],
      "stateMutability": "view",
      "type": "function"
    },
    {
      "inputs": [],
      "name": "owner",
      "outputs": [
        {
          "internalType": "address",
          "name": "",
          "type": "address"
        }
      ],
      "stateMutability": "view",
      "type": "function"
    },
    {
      "inputs": [
        {
          "internalType": "uint256",
          "name": "_auctionId",
          "type": "uint256"
        }
      ],
      "name": "placeBid",
      "outputs": [],
      "stateMutability": "payable",
      "type": "function"
    },
    {
      "inputs": [],
      "name": "renounceOwnership",
      "outputs": [],
      "stateMutability": "nonpayable",
      "type": "function"
    },
    {
      "inputs": [
        {
          "internalType": "uint256",
          "name": "_auctionId",
          "type": "uint256"
        }
      ],
      "name": "settleAuction",
      "outputs": [],
      "stateMutability": "nonpayable",
      "type": "function"
    },
    {
      "inputs": [
        {
          "internalType": "address",
          "name": "newOwner",
          "type": "address"
        }
      ],
      "name": "transferOwnership",
      "outputs": [],
      "stateMutability": "nonpayable",
      "type": "function"
    }
  ],
  "bytecode": "0x608060405234801561001057600080fd5b5061002d61002261007b60201b60201c565b61008360201b60201c565b33600260006101000a81548173ffffffffffffffffffffffffffffffffffffffff021916908373ffffffffffffffffffffffffffffffffffffffff1602179055506000600181905550610147565b600033905090565b60008060009054906101000a900473ffffffffffffffffffffffffffffffffffffffff169050816000806101000a81548173ffffffffffffffffffffffffffffffffffffffff021916908373ffffffffffffffffffffffffffffffffffffffff1602179055508173ffffffffffffffffffffffffffffffffffffffff168173ffffffffffffffffffffffffffffffffffffffff167f8be0079c531659141344cd1fd0a4f28419497f9722a3daafe3b4186f6b6457e060405160405180910390a35050565b611ab2806101566000396000f3fe6080604052600436106100a75760003560e01c80638da5cb5b116100645780638da5cb5b146101b757806398e1b410146101e25780639979ef45146101ec578063b14c63c514610208578063b27c730514610246578063f2fde38b14610262576100a7565b806310782f8f146100ac5780632e993611146100d7578063571a26a0146101005780636f9fb98a14610143578063715018a61461016e5780637b07d60f14610185575b600080fd5b3480156100b857600080fd5b506100c161028b565b6040516100ce9190611106565b60405180910390f35b3480156100e357600080fd5b506100fe60048036038101906100f99190611152565b610291565b005b34801561010c57600080fd5b5061012760048036038101906101229190611152565b610740565b60405161013a97969594939291906111db565b60405180910390f35b34801561014f57600080fd5b506101586107cf565b6040516101659190611106565b60405180910390f35b34801561017a57600080fd5b506101836107d7565b005b61019f600480360381019061019a9190611276565b6107eb565b6040516101ae939291906112dd565b60405180910390f35b3480156101c357600080fd5b506101cc610ae4565b6040516101d99190611314565b60405180910390f35b6101ea610b0d565b005b61020660048036038101906102019190611152565b610b0f565b005b34801561021457600080fd5b5061022f600480360381019061022a9190611152565b610db7565b60405161023d92919061132f565b60405180910390f35b610260600480360381019061025b9190611152565b610dfb565b005b34801561026e57600080fd5b5061028960048036038101906102849190611358565b610f20565b005b60015481565b6000600360008381526020019081526020016000206040518060e00160405290816000820160009054906101000a900473ffffffffffffffffffffffffffffffffffffffff1673ffffffffffffffffffffffffffffffffffffffff1673ffffffffffffffffffffffffffffffffffffffff1681526020016001820160009054906101000a900473ffffffffffffffffffffffffffffffffffffffff1673ffffffffffffffffffffffffffffffffffffffff1673ffffffffffffffffffffffffffffffffffffffff168152602001600282015481526020016003820154815260200160048201548152602001600582015481526020016006820160009054906101000a900460ff16151515158152505090506000600460008481526020019081526020016000206040518060400160405290816000820160009054906101000a900473ffffffffffffffffffffffffffffffffffffffff1673ffffffffffffffffffffffffffffffffffffffff1673ffffffffffffffffffffffffffffffffffffffff16815260200160018201548152505090508160c0015115610469576040517f08c379a0000000000000000000000000000000000000000000000000000000008152600401610460906113e2565b60405180910390fd5b42826060015111156104b0576040517f08c379a00000000000000000000000000000000000000000000000000000000081526004016104a79061144e565b60405180910390fd5b816020015173ffffffffffffffffffffffffffffffffffffffff1663081812fc83604001516040518263ffffffff1660e01b81526004016104f19190611106565b602060405180830381865afa15801561050e573d6000803e3d6000fd5b505050506040513d601f19601f820116820180604052508101906105329190611483565b73ffffffffffffffffffffffffffffffffffffffff163073ffffffffffffffffffffffffffffffffffffffff16146105ba57806000015173ffffffffffffffffffffffffffffffffffffffff166108fc82602001519081150290604051600060405180830381858888f193505050501580156105b2573d6000803e3d6000fd5b50505061073d565b600081602001511461069557816020015173ffffffffffffffffffffffffffffffffffffffff166342842e0e8360000151836000015185604001516040518463ffffffff1660e01b8152600401610613939291906114b0565b600060405180830381600087803b15801561062d57600080fd5b505af1158015610641573d6000803e3d6000fd5b50505050816000015173ffffffffffffffffffffffffffffffffffffffff166108fc82602001519081150290604051600060405180830381858888f19350505050158015610693573d6000803e3d6000fd5b505b816020015173ffffffffffffffffffffffffffffffffffffffff1663095ea7b3600084604001516040518363ffffffff1660e01b81526004016106d992919061132f565b600060405180830381600087803b1580156106f357600080fd5b505af1158015610707573d6000803e3d6000fd5b5050505060016003600085815260200190815260200160002060060160006101000a81548160ff02191690831515021790555050505b50565b60036020528060005260406000206000915090508060000160009054906101000a900473ffffffffffffffffffffffffffffffffffffffff16908060010160009054906101000a900473ffffffffffffffffffffffffffffffffffffffff16908060020154908060030154908060040154908060050154908060060160009054906101000a900460ff16905087565b600047905090565b6107df610fa3565b6107e96000611021565b565b6000806000620151808510158015610806575062278d008511155b610845576040517f08c379a000000000000000000000000000000000000000000000000000000000815260040161083c90611559565b60405180910390fd5b66038d7ea4c6800034101561088f576040517f08c379a0000000000000000000000000000000000000000000000000000000008152600401610886906115eb565b60405180910390fd5b6000428661089d919061163a565b90506040518060e001604052803373ffffffffffffffffffffffffffffffffffffffff1681526020018973ffffffffffffffffffffffffffffffffffffffff1681526020018881526020018281526020018681526020013481526020016000151581525060036000600154815260200190815260200160002060008201518160000160006101000a81548173ffffffffffffffffffffffffffffffffffffffff021916908373ffffffffffffffffffffffffffffffffffffffff16021790555060208201518160010160006101000a81548173ffffffffffffffffffffffffffffffffffffffff021916908373ffffffffffffffffffffffffffffffffffffffff16021790555060408201518160020155606082015181600301556080820151816004015560a0820151816005015560c08201518160060160006101000a81548160ff02191690831515021790555090505060016000815480929190610a029061166e565b9190505550600260009054906101000a900473ffffffffffffffffffffffffffffffffffffffff1673ffffffffffffffffffffffffffffffffffffffff166108fc349081150290604051600060405180830381858888f19350505050158015610a6f573d6000803e3d6000fd5b507fea3de732dafbac2f1e075fd95fb0e0992499b9605e8dbffbee17101b2f6043c83360018054610aa091906116b6565b8a8a858a346000604051610abb9897969594939291906116ea565b60405180910390a13360018054610ad291906116b6565b82935093509350509450945094915050565b60008060009054906101000a900473ffffffffffffffffffffffffffffffffffffffff16905090565b565b6003600082815260200190815260200160002060040154341015610b68576040517f08c379a0000000000000000000000000000000000000000000000000000000008152600401610b5f906117da565b60405180910390fd5b60046000828152602001908152602001600020600101543411610bc0576040517f08c379a0000000000000000000000000000000000000000000000000000000008152600401610bb79061186c565b60405180910390fd5b6000600460008381526020019081526020016000206001015403610c755760405180604001604052803373ffffffffffffffffffffffffffffffffffffffff168152602001348152506004600083815260200190815260200160002060008201518160000160006101000a81548173ffffffffffffffffffffffffffffffffffffffff021916908373ffffffffffffffffffffffffffffffffffffffff16021790555060208201518160010155905050610d79565b6004600082815260200190815260200160002060000160009054906101000a900473ffffffffffffffffffffffffffffffffffffffff1673ffffffffffffffffffffffffffffffffffffffff166108fc60046000848152602001908152602001600020600101549081150290604051600060405180830381858888f19350505050158015610d07573d6000803e3d6000fd5b50336004600083815260200190815260200160002060000160006101000a81548173ffffffffffffffffffffffffffffffffffffffff021916908373ffffffffffffffffffffffffffffffffffffffff1602179055503460046000838152602001908152602001600020600101819055505b7f558a0d5d5468d74b0db24c74eb348b42271c2ebb4c9e953ced38aaed95fa4361813334604051610dac9392919061188c565b60405180910390a150565b60046020528060005260406000206000915090508060000160009054906101000a900473ffffffffffffffffffffffffffffffffffffffff16908060010154905082565b66038d7ea4c68000341015610e45576040517f08c379a0000000000000000000000000000000000000000000000000000000008152600401610e3c90611935565b60405180910390fd5b60006003600083815260200190815260200160002090506000348260050154610e6e919061163a565b9050808260050181905550600260009054906101000a900473ffffffffffffffffffffffffffffffffffffffff1673ffffffffffffffffffffffffffffffffffffffff166108fc349081150290604051600060405180830381858888f19350505050158015610ee1573d6000803e3d6000fd5b507f8987e6f43a6c6bf408c8c427dceb2f98377f859348939ef4ab7b770b510a395a8382604051610f13929190611955565b60405180910390a1505050565b610f28610fa3565b600073ffffffffffffffffffffffffffffffffffffffff168173ffffffffffffffffffffffffffffffffffffffff1603610f97576040517f08c379a0000000000000000000000000000000000000000000000000000000008152600401610f8e906119f0565b60405180910390fd5b610fa081611021565b50565b610fab6110e5565b73ffffffffffffffffffffffffffffffffffffffff16610fc9610ae4565b73ffffffffffffffffffffffffffffffffffffffff161461101f576040517f08c379a000000000000000000000000000000000000000000000000000000000815260040161101690611a5c565b60405180910390fd5b565b60008060009054906101000a900473ffffffffffffffffffffffffffffffffffffffff169050816000806101000a81548173ffffffffffffffffffffffffffffffffffffffff021916908373ffffffffffffffffffffffffffffffffffffffff1602179055508173ffffffffffffffffffffffffffffffffffffffff168173ffffffffffffffffffffffffffffffffffffffff167f8be0079c531659141344cd1fd0a4f28419497f9722a3daafe3b4186f6b6457e060405160405180910390a35050565b600033905090565b6000819050919050565b611100816110ed565b82525050565b600060208201905061111b60008301846110f7565b92915050565b600080fd5b61112f816110ed565b811461113a57600080fd5b50565b60008135905061114c81611126565b92915050565b60006020828403121561116857611167611121565b5b60006111768482850161113d565b91505092915050565b600073ffffffffffffffffffffffffffffffffffffffff82169050919050565b60006111aa8261117f565b9050919050565b6111ba8161119f565b82525050565b60008115159050919050565b6111d5816111c0565b82525050565b600060e0820190506111f0600083018a6111b1565b6111fd60208301896111b1565b61120a60408301886110f7565b61121760608301876110f7565b61122460808301866110f7565b61123160a08301856110f7565b61123e60c08301846111cc565b98975050505050505050565b6112538161119f565b811461125e57600080fd5b50565b6000813590506112708161124a565b92915050565b600080600080608085870312156112905761128f611121565b5b600061129e87828801611261565b94505060206112af8782880161113d565b93505060406112c08782880161113d565b92505060606112d18782880161113d565b91505092959194509250565b60006060820190506112f260008301866111b1565b6112ff60208301856110f7565b61130c60408301846110f7565b949350505050565b600060208201905061132960008301846111b1565b92915050565b600060408201905061134460008301856111b1565b61135160208301846110f7565b9392505050565b60006020828403121561136e5761136d611121565b5b600061137c84828501611261565b91505092915050565b600082825260208201905092915050565b7f41756374696f6e20616c726561647920736574746c6564210000000000000000600082015250565b60006113cc601883611385565b91506113d782611396565b602082019050919050565b600060208201905081810360008301526113fb816113bf565b9050919050565b7f41756374696f6e206e6f74206f76657221000000000000000000000000000000600082015250565b6000611438601183611385565b915061144382611402565b602082019050919050565b600060208201905081810360008301526114678161142b565b9050919050565b60008151905061147d8161124a565b92915050565b60006020828403121561149957611498611121565b5b60006114a78482850161146e565b91505092915050565b60006060820190506114c560008301866111b1565b6114d260208301856111b1565b6114df60408301846110f7565b949350505050565b7f41756374696f6e73206d757374206265206265747765656e203120616e64203360008201527f3020646179732e00000000000000000000000000000000000000000000000000602082015250565b6000611543602783611385565b915061154e826114e7565b604082019050919050565b6000602082019050818103600083015261157281611536565b9050919050565b7f4d696e696d756d206c697374696e6720707269636520697320302e303031206560008201527f746865722e000000000000000000000000000000000000000000000000000000602082015250565b60006115d5602583611385565b91506115e082611579565b604082019050919050565b60006020820190508181036000830152611604816115c8565b9050919050565b7f4e487b7100000000000000000000000000000000000000000000000000000000600052601160045260246000fd5b6000611645826110ed565b9150611650836110ed565b92508282019050808211156116685761166761160b565b5b92915050565b6000611679826110ed565b91507fffffffffffffffffffffffffffffffffffffffffffffffffffffffffffffffff82036116ab576116aa61160b565b5b600182019050919050565b60006116c1826110ed565b91506116cc836110ed565b92508282039050818111156116e4576116e361160b565b5b92915050565b600061010082019050611700600083018b6111b1565b61170d602083018a6110f7565b61171a60408301896111b1565b61172760608301886110f7565b61173460808301876110f7565b61174160a08301866110f7565b61174e60c08301856110f7565b61175b60e08301846111cc565b9998505050505050505050565b7f41756374696f6e207072696365206d757374206265206174206c65617374207460008201527f6865206d696e696d756d2070726963652e000000000000000000000000000000602082015250565b60006117c4603183611385565b91506117cf82611768565b604082019050919050565b600060208201905081810360008301526117f3816117b7565b9050919050565b7f596f75206d75737420626964206d6f7265207468616e2074686520707265766960008201527f6f757320706572736f6e21000000000000000000000000000000000000000000602082015250565b6000611856602b83611385565b9150611861826117fa565b604082019050919050565b6000602082019050818103600083015261188581611849565b9050919050565b60006060820190506118a160008301866110f7565b6118ae60208301856111b1565b6118bb60408301846110f7565b949350505050565b7f4d696e696d756d20707269636520616d6f756e7420696e63726561736520697360008201527f20302e3030312065746865722e00000000000000000000000000000000000000602082015250565b600061191f602d83611385565b915061192a826118c3565b604082019050919050565b6000602082019050818103600083015261194e81611912565b9050919050565b600060408201905061196a60008301856110f7565b61197760208301846110f7565b9392505050565b7f4f776e61626c653a206e6577206f776e657220697320746865207a65726f206160008201527f6464726573730000000000000000000000000000000000000000000000000000602082015250565b60006119da602683611385565b91506119e58261197e565b604082019050919050565b60006020820190508181036000830152611a09816119cd565b9050919050565b7f4f776e61626c653a2063616c6c6572206973206e6f7420746865206f776e6572600082015250565b6000611a46602083611385565b9150611a5182611a10565b602082019050919050565b60006020820190508181036000830152611a7581611a39565b905091905056fea26469706673582212209d8ee5ba61f9badaedcf3efb5cef353f616e6c7430e725a37b33a1090381847864736f6c63430008120033",
  "linkReferences": {},
  "deployedLinkReferences": {}
}